{
  "address": "0x720c50573bB44311f30444Bb7c8fF5872B52AF7f",
  "abi": [
    {
      "inputs": [
        {
          "internalType": "address",
          "name": "_owner",
          "type": "address"
        }
      ],
      "stateMutability": "nonpayable",
      "type": "constructor"
    },
    {
      "anonymous": false,
      "inputs": [
        {
          "indexed": true,
          "internalType": "address",
          "name": "greetingSetter",
          "type": "address"
        },
        {
          "indexed": false,
          "internalType": "string",
          "name": "newGreeting",
          "type": "string"
        },
        {
          "indexed": false,
          "internalType": "bool",
          "name": "premium",
          "type": "bool"
        },
        {
          "indexed": false,
          "internalType": "uint256",
          "name": "value",
          "type": "uint256"
        }
      ],
      "name": "GreetingChange",
      "type": "event"
    },
    {
      "inputs": [],
      "name": "greeting",
      "outputs": [
        {
          "internalType": "string",
          "name": "",
          "type": "string"
        }
      ],
      "stateMutability": "view",
      "type": "function"
    },
    {
      "inputs": [],
      "name": "owner",
      "outputs": [
        {
          "internalType": "address",
          "name": "",
          "type": "address"
        }
      ],
      "stateMutability": "view",
      "type": "function"
    },
    {
      "inputs": [],
      "name": "premium",
      "outputs": [
        {
          "internalType": "bool",
          "name": "",
          "type": "bool"
        }
      ],
      "stateMutability": "view",
      "type": "function"
    },
    {
      "inputs": [
        {
          "internalType": "string",
          "name": "_newGreeting",
          "type": "string"
        }
      ],
      "name": "setGreeting",
      "outputs": [],
      "stateMutability": "payable",
      "type": "function"
    },
    {
      "inputs": [],
      "name": "totalCounter",
      "outputs": [
        {
          "internalType": "uint256",
          "name": "",
          "type": "uint256"
        }
      ],
      "stateMutability": "view",
      "type": "function"
    },
    {
      "inputs": [
        {
          "internalType": "address",
          "name": "",
          "type": "address"
        }
      ],
      "name": "userGreetingCounter",
      "outputs": [
        {
          "internalType": "uint256",
          "name": "",
          "type": "uint256"
        }
      ],
      "stateMutability": "view",
      "type": "function"
    },
    {
      "inputs": [],
      "name": "withdraw",
      "outputs": [],
      "stateMutability": "nonpayable",
      "type": "function"
    },
    {
      "stateMutability": "payable",
      "type": "receive"
    }
  ],
  "transactionHash": "0xd484ab37d511730277f7d5f2abc76450ec14e063f3ca6b29140b2f44c9b7876f",
  "args": [
    "0x1A9EB5B0480a08C2dDab8845a57CB7f5Dd05B2DE"
  ],
  "numDeployments": 1,
  "solcInputHash": "05772e03584cf4c7e50fa09f4552b961",
  "bytecode": "0x60e0604052601c60a09081527f4275696c64696e6720556e73746f707061626c6520417070732121210000000060c05260009061003c9082610127565b506001805460ff19169055600060025534801561005857600080fd5b50604051610949380380610949833981016040819052610077916101e6565b6001600160a01b0316608052610216565b634e487b7160e01b600052604160045260246000fd5b600181811c908216806100b257607f821691505b6020821081036100d257634e487b7160e01b600052602260045260246000fd5b50919050565b601f82111561012257600081815260208120601f850160051c810160208610156100ff5750805b601f850160051c820191505b8181101561011e5782815560010161010b565b5050505b505050565b81516001600160401b0381111561014057610140610088565b6101548161014e845461009e565b846100d8565b602080601f83116001811461018957600084156101715750858301515b600019600386901b1c1916600185901b17855561011e565b600085815260208120601f198616915b828110156101b857888601518255948401946001909101908401610199565b50858210156101d65787850151600019600388901b60f8161c191681555b5050505050600190811b01905550565b6000602082840312156101f857600080fd5b81516001600160a01b038116811461020f57600080fd5b9392505050565b60805161070b61023e6000396000818160a9015281816101a30152610209015261070b6000f3fe6080604052600436106100745760003560e01c8063a41368621161004e578063a41368621461010c578063cea49c3c1461011f578063e0a73a931461014c578063ef690cc01461017657600080fd5b80633ccfd60b146100805780638da5cb5b1461009757806397feba9d146100e857600080fd5b3661007b57005b600080fd5b34801561008c57600080fd5b50610095610198565b005b3480156100a357600080fd5b506100cb7f000000000000000000000000000000000000000000000000000000000000000081565b6040516001600160a01b0390911681526020015b60405180910390f35b3480156100f457600080fd5b506100fe60025481565b6040519081526020016100df565b61009561011a366004610406565b6102c2565b34801561012b57600080fd5b506100fe61013a3660046104b7565b60036020526000908152604090205481565b34801561015857600080fd5b506001546101669060ff1681565b60405190151581526020016100df565b34801561018257600080fd5b5061018b610362565b6040516100df919061052d565b336001600160a01b037f000000000000000000000000000000000000000000000000000000000000000016146102055760405162461bcd60e51b815260206004820152600d60248201526c2737ba103a34329027bbb732b960991b60448201526064015b60405180910390fd5b60007f00000000000000000000000000000000000000000000000000000000000000006001600160a01b03164760405160006040518083038185875af1925050503d8060008114610272576040519150601f19603f3d011682016040523d82523d6000602084013e610277565b606091505b50509050806102bf5760405162461bcd60e51b81526020600482015260146024820152732330b4b632b2103a379039b2b7321022ba3432b960611b60448201526064016101fc565b50565b60006102ce82826105c9565b506001600260008282546102e29190610689565b9091555050336000908152600360205260408120805460019290610307908490610689565b90915550506001805460ff19163480151591821790925560405133927f94cbd7e04dca26a7667654f6448b2ca0a40fec602118dc5fd8c82b9cf3c645ad9261035792869260ff90921691906106b0565b60405180910390a250565b6000805461036f90610540565b80601f016020809104026020016040519081016040528092919081815260200182805461039b90610540565b80156103e85780601f106103bd576101008083540402835291602001916103e8565b820191906000526020600020905b8154815290600101906020018083116103cb57829003601f168201915b505050505081565b634e487b7160e01b600052604160045260246000fd5b60006020828403121561041857600080fd5b813567ffffffffffffffff8082111561043057600080fd5b818401915084601f83011261044457600080fd5b813581811115610456576104566103f0565b604051601f8201601f19908116603f0116810190838211818310171561047e5761047e6103f0565b8160405282815287602084870101111561049757600080fd5b826020860160208301376000928101602001929092525095945050505050565b6000602082840312156104c957600080fd5b81356001600160a01b03811681146104e057600080fd5b9392505050565b6000815180845260005b8181101561050d576020818501810151868301820152016104f1565b506000602082860101526020601f19601f83011685010191505092915050565b6020815260006104e060208301846104e7565b600181811c9082168061055457607f821691505b60208210810361057457634e487b7160e01b600052602260045260246000fd5b50919050565b601f8211156105c457600081815260208120601f850160051c810160208610156105a15750805b601f850160051c820191505b818110156105c0578281556001016105ad565b5050505b505050565b815167ffffffffffffffff8111156105e3576105e36103f0565b6105f7816105f18454610540565b8461057a565b602080601f83116001811461062c57600084156106145750858301515b600019600386901b1c1916600185901b1785556105c0565b600085815260208120601f198616915b8281101561065b5788860151825594840194600190910190840161063c565b50858210156106795787850151600019600388901b60f8161c191681555b5050505050600190811b01905550565b808201808211156106aa57634e487b7160e01b600052601160045260246000fd5b92915050565b6060815260006106c360608301866104e7565b9315156020830152506040015291905056fea264697066735822122053b39b02dfcf8222b1bb42e9a1145136bfab594a4ad0159caf2a0416ada11cdb64736f6c63430008140033",
  "devdoc": {
    "author": "BuidlGuidl",
    "kind": "dev",
    "methods": {},
    "version": 1
  },
  "userdoc": {
    "kind": "user",
    "methods": {},
    "notice": "A smart contract that allows changing a state variable of the contract and tracking the changes It also allows the owner to withdraw the Ether in the contract",
    "version": 1
  },
  "storageLayout": {
    "storage": [
      {
        "astId": 7,
        "contract": "contracts/YourContract.sol:YourContract",
        "label": "greeting",
        "offset": 0,
        "slot": "0",
        "type": "t_string_storage"
      },
      {
        "astId": 10,
        "contract": "contracts/YourContract.sol:YourContract",
        "label": "premium",
        "offset": 0,
        "slot": "1",
        "type": "t_bool"
      },
      {
        "astId": 13,
        "contract": "contracts/YourContract.sol:YourContract",
        "label": "totalCounter",
        "offset": 0,
        "slot": "2",
        "type": "t_uint256"
      },
      {
        "astId": 17,
        "contract": "contracts/YourContract.sol:YourContract",
        "label": "userGreetingCounter",
        "offset": 0,
        "slot": "3",
        "type": "t_mapping(t_address,t_uint256)"
      }
    ],
    "types": {
      "t_address": {
        "encoding": "inplace",
        "label": "address",
        "numberOfBytes": "20"
      },
      "t_bool": {
        "encoding": "inplace",
        "label": "bool",
        "numberOfBytes": "1"
      },
      "t_mapping(t_address,t_uint256)": {
        "encoding": "mapping",
        "key": "t_address",
        "label": "mapping(address => uint256)",
        "numberOfBytes": "32",
        "value": "t_uint256"
      },
      "t_string_storage": {
        "encoding": "bytes",
        "label": "string",
        "numberOfBytes": "32"
      },
      "t_uint256": {
        "encoding": "inplace",
        "label": "uint256",
        "numberOfBytes": "32"
      }
    }
  }
}